{"contracts/chainlinkcontract.sol":{"DataConsumerV3":{"abi":[{"inputs":[],"stateMutability":"nonpayable","type":"constructor"},{"inputs":[{"internalType":"string","name":"_input","type":"string"}],"name":"getChainlinkDataFeedLatestAnswer","outputs":[{"internalType":"int256","name":"","type":"int256"}],"stateMutability":"view","type":"function"}],"evm":{"bytecode":{"linkReferences":{},"object":"608060405234801561001057600080fd5b50731b44f3514812d835eb1bdb0acb33d3fa3351ee436000806101000a81548173ffffffffffffffffffffffffffffffffffffffff021916908373ffffffffffffffffffffffffffffffffffffffff16021790555073694aa1769357215de4fac081bf1f309adc325306600160006101000a81548173ffffffffffffffffffffffffffffffffffffffff021916908373ffffffffffffffffffffffffffffffffffffffff16021790555073c59e3633baac79493d908e63626716e204a45edf600260006101000a81548173ffffffffffffffffffffffffffffffffffffffff021916908373ffffffffffffffffffffffffffffffffffffffff160217905550735fb1616f78da7afc9ff79e0371741a747d2a7f22600360006101000a81548173ffffffffffffffffffffffffffffffffffffffff021916908373ffffffffffffffffffffffffffffffffffffffff160217905550610a28806101736000396000f3fe608060405234801561001057600080fd5b506004361061002b5760003560e01c80636b33e35414610030575b600080fd5b61004a600480360381019061004591906105d5565b610060565b6040516100579190610713565b60405180910390f35b60006100a1826040518060400160405280600781526020017f4254432f555344000000000000000000000000000000000000000000000000008152506104cd565b1561016b5760008060009054906101000a900473ffffffffffffffffffffffffffffffffffffffff1673ffffffffffffffffffffffffffffffffffffffff1663feaf968c6040518163ffffffff1660e01b815260040160a06040518083038186803b15801561010f57600080fd5b505afa158015610123573d6000803e3d6000fd5b505050506040513d601f19601f82011682018060405250810190610147919061061e565b50505091505060006305f5e1008261015f91906107cb565b905080925050506104c8565b6101aa826040518060400160405280600781526020017f4554482f555344000000000000000000000000000000000000000000000000008152506104cd565b15610275576000600160009054906101000a900473ffffffffffffffffffffffffffffffffffffffff1673ffffffffffffffffffffffffffffffffffffffff1663feaf968c6040518163ffffffff1660e01b815260040160a06040518083038186803b15801561021957600080fd5b505afa15801561022d573d6000803e3d6000fd5b505050506040513d601f19601f82011682018060405250810190610251919061061e565b50505091505060006305f5e1008261026991906107cb565b905080925050506104c8565b6102b4826040518060400160405280600881526020017f4c494e4b2f5553440000000000000000000000000000000000000000000000008152506104cd565b1561037f576000600260009054906101000a900473ffffffffffffffffffffffffffffffffffffffff1673ffffffffffffffffffffffffffffffffffffffff1663feaf968c6040518163ffffffff1660e01b815260040160a06040518083038186803b15801561032357600080fd5b505afa158015610337573d6000803e3d6000fd5b505050506040513d601f19601f8201168201806040525081019061035b919061061e565b50505091505060006305f5e1008261037391906107cb565b905080925050506104c8565b6103be826040518060400160405280600781526020017f4254432f455448000000000000000000000000000000000000000000000000008152506104cd565b1561048d576000600360009054906101000a900473ffffffffffffffffffffffffffffffffffffffff1673ffffffffffffffffffffffffffffffffffffffff1663feaf968c6040518163ffffffff1660e01b815260040160a06040518083038186803b15801561042d57600080fd5b505afa158015610441573d6000803e3d6000fd5b505050506040513d601f19601f82011682018060405250810190610465919061061e565b5050509150506000670de0b6b3a76400008261048191906107cb565b905080925050506104c8565b6040517f08c379a00000000000000000000000000000000000000000000000000000000081526004016104bf9061072e565b60405180910390fd5b919050565b6000816040516020016104e091906106fc565b604051602081830303815290604052805190602001208360405160200161050791906106fc565b6040516020818303038152906040528051906020012014905092915050565b600061053961053484610773565b61074e565b90508281526020810184848401111561055557610554610964565b5b61056084828561085f565b509392505050565b600081519050610577816109ad565b92915050565b600082601f8301126105925761059161095f565b5b81356105a2848260208601610526565b91505092915050565b6000815190506105ba816109c4565b92915050565b6000815190506105cf816109db565b92915050565b6000602082840312156105eb576105ea61096e565b5b600082013567ffffffffffffffff81111561060957610608610969565b5b6106158482850161057d565b91505092915050565b600080600080600060a0868803121561063a5761063961096e565b5b6000610648888289016105c0565b955050602061065988828901610568565b945050604061066a888289016105ab565b935050606061067b888289016105ab565b925050608061068c888289016105c0565b9150509295509295909350565b6106a281610835565b82525050565b60006106b3826107a4565b6106bd81856107c0565b93506106cd81856020860161086e565b80840191505092915050565b60006106e66015836107af565b91506106f182610984565b602082019050919050565b600061070882846106a8565b915081905092915050565b60006020820190506107286000830184610699565b92915050565b60006020820190508181036000830152610747816106d9565b9050919050565b6000610758610769565b905061076482826108a1565b919050565b6000604051905090565b600067ffffffffffffffff82111561078e5761078d610930565b5b61079782610973565b9050602081019050919050565b600081519050919050565b600082825260208201905092915050565b600081905092915050565b60006107d682610835565b91506107e183610835565b9250826107f1576107f0610901565b5b600160000383147f80000000000000000000000000000000000000000000000000000000000000008314161561082a576108296108d2565b5b828205905092915050565b6000819050919050565b6000819050919050565b600069ffffffffffffffffffff82169050919050565b82818337600083830152505050565b60005b8381101561088c578082015181840152602081019050610871565b8381111561089b576000848401525b50505050565b6108aa82610973565b810181811067ffffffffffffffff821117156108c9576108c8610930565b5b80604052505050565b7f4e487b7100000000000000000000000000000000000000000000000000000000600052601160045260246000fd5b7f4e487b7100000000000000000000000000000000000000000000000000000000600052601260045260246000fd5b7f4e487b7100000000000000000000000000000000000000000000000000000000600052604160045260246000fd5b600080fd5b600080fd5b600080fd5b600080fd5b6000601f19601f8301169050919050565b7f556e737570706f72746564206461746120666565640000000000000000000000600082015250565b6109b681610835565b81146109c157600080fd5b50565b6109cd8161083f565b81146109d857600080fd5b50565b6109e481610849565b81146109ef57600080fd5b5056fea26469706673582212206bde7a64c7cb8b8a2279147697c096e3a7e806f0ba9042f45617ae2aa536304764736f6c63430008070033","opcodes":"PUSH1 0x80 PUSH1 0x40 MSTORE CALLVALUE DUP1 ISZERO PUSH2 0x10 JUMPI PUSH1 0x0 DUP1 REVERT JUMPDEST POP PUSH20 0x1B44F3514812D835EB1BDB0ACB33D3FA3351EE43 PUSH1 0x0 DUP1 PUSH2 0x100 EXP DUP2 SLOAD DUP2 PUSH20 0xFFFFFFFFFFFFFFFFFFFFFFFFFFFFFFFFFFFFFFFF MUL NOT AND SWAP1 DUP4 PUSH20 0xFFFFFFFFFFFFFFFFFFFFFFFFFFFFFFFFFFFFFFFF AND MUL OR SWAP1 SSTORE POP PUSH20 0x694AA1769357215DE4FAC081BF1F309ADC325306 PUSH1 0x1 PUSH1 0x0 PUSH2 0x100 EXP DUP2 SLOAD DUP2 PUSH20 0xFFFFFFFFFFFFFFFFFFFFFFFFFFFFFFFFFFFFFFFF MUL NOT AND SWAP1 DUP4 PUSH20 0xFFFFFFFFFFFFFFFFFFFFFFFFFFFFFFFFFFFFFFFF AND MUL OR SWAP1 SSTORE POP PUSH20 0xC59E3633BAAC79493D908E63626716E204A45EDF PUSH1 0x2 PUSH1 0x0 PUSH2 0x100 EXP DUP2 SLOAD DUP2 PUSH20 0xFFFFFFFFFFFFFFFFFFFFFFFFFFFFFFFFFFFFFFFF MUL NOT AND SWAP1 DUP4 PUSH20 0xFFFFFFFFFFFFFFFFFFFFFFFFFFFFFFFFFFFFFFFF AND MUL OR SWAP1 SSTORE POP PUSH20 0x5FB1616F78DA7AFC9FF79E0371741A747D2A7F22 PUSH1 0x3 PUSH1 0x0 PUSH2 0x100 EXP DUP2 SLOAD DUP2 PUSH20 0xFFFFFFFFFFFFFFFFFFFFFFFFFFFFFFFFFFFFFFFF MUL NOT AND SWAP1 DUP4 PUSH20 0xFFFFFFFFFFFFFFFFFFFFFFFFFFFFFFFFFFFFFFFF AND MUL OR SWAP1 SSTORE POP PUSH2 0xA28 DUP1 PUSH2 0x173 PUSH1 0x0 CODECOPY PUSH1 0x0 RETURN INVALID PUSH1 0x80 PUSH1 0x40 MSTORE CALLVALUE DUP1 ISZERO PUSH2 0x10 JUMPI PUSH1 0x0 DUP1 REVERT JUMPDEST POP PUSH1 0x4 CALLDATASIZE LT PUSH2 0x2B JUMPI PUSH1 0x0 CALLDATALOAD PUSH1 0xE0 SHR DUP1 PUSH4 0x6B33E354 EQ PUSH2 0x30 JUMPI JUMPDEST PUSH1 0x0 DUP1 REVERT JUMPDEST PUSH2 0x4A PUSH1 0x4 DUP1 CALLDATASIZE SUB DUP2 ADD SWAP1 PUSH2 0x45 SWAP2 SWAP1 PUSH2 0x5D5 JUMP JUMPDEST PUSH2 0x60 JUMP JUMPDEST PUSH1 0x40 MLOAD PUSH2 0x57 SWAP2 SWAP1 PUSH2 0x713 JUMP JUMPDEST PUSH1 0x40 MLOAD DUP1 SWAP2 SUB SWAP1 RETURN JUMPDEST PUSH1 0x0 PUSH2 0xA1 DUP3 PUSH1 0x40 MLOAD DUP1 PUSH1 0x40 ADD PUSH1 0x40 MSTORE DUP1 PUSH1 0x7 DUP2 MSTORE PUSH1 0x20 ADD PUSH32 0x4254432F55534400000000000000000000000000000000000000000000000000 DUP2 MSTORE POP PUSH2 0x4CD JUMP JUMPDEST ISZERO PUSH2 0x16B JUMPI PUSH1 0x0 DUP1 PUSH1 0x0 SWAP1 SLOAD SWAP1 PUSH2 0x100 EXP SWAP1 DIV PUSH20 0xFFFFFFFFFFFFFFFFFFFFFFFFFFFFFFFFFFFFFFFF AND PUSH20 0xFFFFFFFFFFFFFFFFFFFFFFFFFFFFFFFFFFFFFFFF AND PUSH4 0xFEAF968C PUSH1 0x40 MLOAD DUP2 PUSH4 0xFFFFFFFF AND PUSH1 0xE0 SHL DUP2 MSTORE PUSH1 0x4 ADD PUSH1 0xA0 PUSH1 0x40 MLOAD DUP1 DUP4 SUB DUP2 DUP7 DUP1 EXTCODESIZE ISZERO DUP1 ISZERO PUSH2 0x10F JUMPI PUSH1 0x0 DUP1 REVERT JUMPDEST POP GAS STATICCALL ISZERO DUP1 ISZERO PUSH2 0x123 JUMPI RETURNDATASIZE PUSH1 0x0 DUP1 RETURNDATACOPY RETURNDATASIZE PUSH1 0x0 REVERT JUMPDEST POP POP POP POP PUSH1 0x40 MLOAD RETURNDATASIZE PUSH1 0x1F NOT PUSH1 0x1F DUP3 ADD AND DUP3 ADD DUP1 PUSH1 0x40 MSTORE POP DUP2 ADD SWAP1 PUSH2 0x147 SWAP2 SWAP1 PUSH2 0x61E JUMP JUMPDEST POP POP POP SWAP2 POP POP PUSH1 0x0 PUSH4 0x5F5E100 DUP3 PUSH2 0x15F SWAP2 SWAP1 PUSH2 0x7CB JUMP JUMPDEST SWAP1 POP DUP1 SWAP3 POP POP POP PUSH2 0x4C8 JUMP JUMPDEST PUSH2 0x1AA DUP3 PUSH1 0x40 MLOAD DUP1 PUSH1 0x40 ADD PUSH1 0x40 MSTORE DUP1 PUSH1 0x7 DUP2 MSTORE PUSH1 0x20 ADD PUSH32 0x4554482F55534400000000000000000000000000000000000000000000000000 DUP2 MSTORE POP PUSH2 0x4CD JUMP JUMPDEST ISZERO PUSH2 0x275 JUMPI PUSH1 0x0 PUSH1 0x1 PUSH1 0x0 SWAP1 SLOAD SWAP1 PUSH2 0x100 EXP SWAP1 DIV PUSH20 0xFFFFFFFFFFFFFFFFFFFFFFFFFFFFFFFFFFFFFFFF AND PUSH20 0xFFFFFFFFFFFFFFFFFFFFFFFFFFFFFFFFFFFFFFFF AND PUSH4 0xFEAF968C PUSH1 0x40 MLOAD DUP2 PUSH4 0xFFFFFFFF AND PUSH1 0xE0 SHL DUP2 MSTORE PUSH1 0x4 ADD PUSH1 0xA0 PUSH1 0x40 MLOAD DUP1 DUP4 SUB DUP2 DUP7 DUP1 EXTCODESIZE ISZERO DUP1 ISZERO PUSH2 0x219 JUMPI PUSH1 0x0 DUP1 REVERT JUMPDEST POP GAS STATICCALL ISZERO DUP1 ISZERO PUSH2 0x22D JUMPI RETURNDATASIZE PUSH1 0x0 DUP1 RETURNDATACOPY RETURNDATASIZE PUSH1 0x0 REVERT JUMPDEST POP POP POP POP PUSH1 0x40 MLOAD RETURNDATASIZE PUSH1 0x1F NOT PUSH1 0x1F DUP3 ADD AND DUP3 ADD DUP1 PUSH1 0x40 MSTORE POP DUP2 ADD SWAP1 PUSH2 0x251 SWAP2 SWAP1 PUSH2 0x61E JUMP JUMPDEST POP POP POP SWAP2 POP POP PUSH1 0x0 PUSH4 0x5F5E100 DUP3 PUSH2 0x269 SWAP2 SWAP1 PUSH2 0x7CB JUMP JUMPDEST SWAP1 POP DUP1 SWAP3 POP POP POP PUSH2 0x4C8 JUMP JUMPDEST PUSH2 0x2B4 DUP3 PUSH1 0x40 MLOAD DUP1 PUSH1 0x40 ADD PUSH1 0x40 MSTORE DUP1 PUSH1 0x8 DUP2 MSTORE PUSH1 0x20 ADD PUSH32 0x4C494E4B2F555344000000000000000000000000000000000000000000000000 DUP2 MSTORE POP PUSH2 0x4CD JUMP JUMPDEST ISZERO PUSH2 0x37F JUMPI PUSH1 0x0 PUSH1 0x2 PUSH1 0x0 SWAP1 SLOAD SWAP1 PUSH2 0x100 EXP SWAP1 DIV PUSH20 0xFFFFFFFFFFFFFFFFFFFFFFFFFFFFFFFFFFFFFFFF AND PUSH20 0xFFFFFFFFFFFFFFFFFFFFFFFFFFFFFFFFFFFFFFFF AND PUSH4 0xFEAF968C PUSH1 0x40 MLOAD DUP2 PUSH4 0xFFFFFFFF AND PUSH1 0xE0 SHL DUP2 MSTORE PUSH1 0x4 ADD PUSH1 0xA0 PUSH1 0x40 MLOAD DUP1 DUP4 SUB DUP2 DUP7 DUP1 EXTCODESIZE ISZERO DUP1 ISZERO PUSH2 0x323 JUMPI PUSH1 0x0 DUP1 REVERT JUMPDEST POP GAS STATICCALL ISZERO DUP1 ISZERO PUSH2 0x337 JUMPI RETURNDATASIZE PUSH1 0x0 DUP1 RETURNDATACOPY RETURNDATASIZE PUSH1 0x0 REVERT JUMPDEST POP POP POP POP PUSH1 0x40 MLOAD RETURNDATASIZE PUSH1 0x1F NOT PUSH1 0x1F DUP3 ADD AND DUP3 ADD DUP1 PUSH1 0x40 MSTORE POP DUP2 ADD SWAP1 PUSH2 0x35B SWAP2 SWAP1 PUSH2 0x61E JUMP JUMPDEST POP POP POP SWAP2 POP POP PUSH1 0x0 PUSH4 0x5F5E100 DUP3 PUSH2 0x373 SWAP2 SWAP1 PUSH2 0x7CB JUMP JUMPDEST SWAP1 POP DUP1 SWAP3 POP POP POP PUSH2 0x4C8 JUMP JUMPDEST PUSH2 0x3BE DUP3 PUSH1 0x40 MLOAD DUP1 PUSH1 0x40 ADD PUSH1 0x40 MSTORE DUP1 PUSH1 0x7 DUP2 MSTORE PUSH1 0x20 ADD PUSH32 0x4254432F45544800000000000000000000000000000000000000000000000000 DUP2 MSTORE POP PUSH2 0x4CD JUMP JUMPDEST ISZERO PUSH2 0x48D JUMPI PUSH1 0x0 PUSH1 0x3 PUSH1 0x0 SWAP1 SLOAD SWAP1 PUSH2 0x100 EXP SWAP1 DIV PUSH20 0xFFFFFFFFFFFFFFFFFFFFFFFFFFFFFFFFFFFFFFFF AND PUSH20 0xFFFFFFFFFFFFFFFFFFFFFFFFFFFFFFFFFFFFFFFF AND PUSH4 0xFEAF968C PUSH1 0x40 MLOAD DUP2 PUSH4 0xFFFFFFFF AND PUSH1 0xE0 SHL DUP2 MSTORE PUSH1 0x4 ADD PUSH1 0xA0 PUSH1 0x40 MLOAD DUP1 DUP4 SUB DUP2 DUP7 DUP1 EXTCODESIZE ISZERO DUP1 ISZERO PUSH2 0x42D JUMPI PUSH1 0x0 DUP1 REVERT JUMPDEST POP GAS STATICCALL ISZERO DUP1 ISZERO PUSH2 0x441 JUMPI RETURNDATASIZE PUSH1 0x0 DUP1 RETURNDATACOPY RETURNDATASIZE PUSH1 0x0 REVERT JUMPDEST POP POP POP POP PUSH1 0x40 MLOAD RETURNDATASIZE PUSH1 0x1F NOT PUSH1 0x1F DUP3 ADD AND DUP3 ADD DUP1 PUSH1 0x40 MSTORE POP DUP2 ADD SWAP1 PUSH2 0x465 SWAP2 SWAP1 PUSH2 0x61E JUMP JUMPDEST POP POP POP SWAP2 POP POP PUSH1 0x0 PUSH8 0xDE0B6B3A7640000 DUP3 PUSH2 0x481 SWAP2 SWAP1 PUSH2 0x7CB JUMP JUMPDEST SWAP1 POP DUP1 SWAP3 POP POP POP PUSH2 0x4C8 JUMP JUMPDEST PUSH1 0x40 MLOAD PUSH32 0x8C379A000000000000000000000000000000000000000000000000000000000 DUP2 MSTORE PUSH1 0x4 ADD PUSH2 0x4BF SWAP1 PUSH2 0x72E JUMP JUMPDEST PUSH1 0x40 MLOAD DUP1 SWAP2 SUB SWAP1 REVERT JUMPDEST SWAP2 SWAP1 POP JUMP JUMPDEST PUSH1 0x0 DUP2 PUSH1 0x40 MLOAD PUSH1 0x20 ADD PUSH2 0x4E0 SWAP2 SWAP1 PUSH2 0x6FC JUMP JUMPDEST PUSH1 0x40 MLOAD PUSH1 0x20 DUP2 DUP4 SUB SUB DUP2 MSTORE SWAP1 PUSH1 0x40 MSTORE DUP1 MLOAD SWAP1 PUSH1 0x20 ADD KECCAK256 DUP4 PUSH1 0x40 MLOAD PUSH1 0x20 ADD PUSH2 0x507 SWAP2 SWAP1 PUSH2 0x6FC JUMP JUMPDEST PUSH1 0x40 MLOAD PUSH1 0x20 DUP2 DUP4 SUB SUB DUP2 MSTORE SWAP1 PUSH1 0x40 MSTORE DUP1 MLOAD SWAP1 PUSH1 0x20 ADD KECCAK256 EQ SWAP1 POP SWAP3 SWAP2 POP POP JUMP JUMPDEST PUSH1 0x0 PUSH2 0x539 PUSH2 0x534 DUP5 PUSH2 0x773 JUMP JUMPDEST PUSH2 0x74E JUMP JUMPDEST SWAP1 POP DUP3 DUP2 MSTORE PUSH1 0x20 DUP2 ADD DUP5 DUP5 DUP5 ADD GT ISZERO PUSH2 0x555 JUMPI PUSH2 0x554 PUSH2 0x964 JUMP JUMPDEST JUMPDEST PUSH2 0x560 DUP5 DUP3 DUP6 PUSH2 0x85F JUMP JUMPDEST POP SWAP4 SWAP3 POP POP POP JUMP JUMPDEST PUSH1 0x0 DUP2 MLOAD SWAP1 POP PUSH2 0x577 DUP2 PUSH2 0x9AD JUMP JUMPDEST SWAP3 SWAP2 POP POP JUMP JUMPDEST PUSH1 0x0 DUP3 PUSH1 0x1F DUP4 ADD SLT PUSH2 0x592 JUMPI PUSH2 0x591 PUSH2 0x95F JUMP JUMPDEST JUMPDEST DUP2 CALLDATALOAD PUSH2 0x5A2 DUP5 DUP3 PUSH1 0x20 DUP7 ADD PUSH2 0x526 JUMP JUMPDEST SWAP2 POP POP SWAP3 SWAP2 POP POP JUMP JUMPDEST PUSH1 0x0 DUP2 MLOAD SWAP1 POP PUSH2 0x5BA DUP2 PUSH2 0x9C4 JUMP JUMPDEST SWAP3 SWAP2 POP POP JUMP JUMPDEST PUSH1 0x0 DUP2 MLOAD SWAP1 POP PUSH2 0x5CF DUP2 PUSH2 0x9DB JUMP JUMPDEST SWAP3 SWAP2 POP POP JUMP JUMPDEST PUSH1 0x0 PUSH1 0x20 DUP3 DUP5 SUB SLT ISZERO PUSH2 0x5EB JUMPI PUSH2 0x5EA PUSH2 0x96E JUMP JUMPDEST JUMPDEST PUSH1 0x0 DUP3 ADD CALLDATALOAD PUSH8 0xFFFFFFFFFFFFFFFF DUP2 GT ISZERO PUSH2 0x609 JUMPI PUSH2 0x608 PUSH2 0x969 JUMP JUMPDEST JUMPDEST PUSH2 0x615 DUP5 DUP3 DUP6 ADD PUSH2 0x57D JUMP JUMPDEST SWAP2 POP POP SWAP3 SWAP2 POP POP JUMP JUMPDEST PUSH1 0x0 DUP1 PUSH1 0x0 DUP1 PUSH1 0x0 PUSH1 0xA0 DUP7 DUP9 SUB SLT ISZERO PUSH2 0x63A JUMPI PUSH2 0x639 PUSH2 0x96E JUMP JUMPDEST JUMPDEST PUSH1 0x0 PUSH2 0x648 DUP9 DUP3 DUP10 ADD PUSH2 0x5C0 JUMP JUMPDEST SWAP6 POP POP PUSH1 0x20 PUSH2 0x659 DUP9 DUP3 DUP10 ADD PUSH2 0x568 JUMP JUMPDEST SWAP5 POP POP PUSH1 0x40 PUSH2 0x66A DUP9 DUP3 DUP10 ADD PUSH2 0x5AB JUMP JUMPDEST SWAP4 POP POP PUSH1 0x60 PUSH2 0x67B DUP9 DUP3 DUP10 ADD PUSH2 0x5AB JUMP JUMPDEST SWAP3 POP POP PUSH1 0x80 PUSH2 0x68C DUP9 DUP3 DUP10 ADD PUSH2 0x5C0 JUMP JUMPDEST SWAP2 POP POP SWAP3 SWAP6 POP SWAP3 SWAP6 SWAP1 SWAP4 POP JUMP JUMPDEST PUSH2 0x6A2 DUP2 PUSH2 0x835 JUMP JUMPDEST DUP3 MSTORE POP POP JUMP JUMPDEST PUSH1 0x0 PUSH2 0x6B3 DUP3 PUSH2 0x7A4 JUMP JUMPDEST PUSH2 0x6BD DUP2 DUP6 PUSH2 0x7C0 JUMP JUMPDEST SWAP4 POP PUSH2 0x6CD DUP2 DUP6 PUSH1 0x20 DUP7 ADD PUSH2 0x86E JUMP JUMPDEST DUP1 DUP5 ADD SWAP2 POP POP SWAP3 SWAP2 POP POP JUMP JUMPDEST PUSH1 0x0 PUSH2 0x6E6 PUSH1 0x15 DUP4 PUSH2 0x7AF JUMP JUMPDEST SWAP2 POP PUSH2 0x6F1 DUP3 PUSH2 0x984 JUMP JUMPDEST PUSH1 0x20 DUP3 ADD SWAP1 POP SWAP2 SWAP1 POP JUMP JUMPDEST PUSH1 0x0 PUSH2 0x708 DUP3 DUP5 PUSH2 0x6A8 JUMP JUMPDEST SWAP2 POP DUP2 SWAP1 POP SWAP3 SWAP2 POP POP JUMP JUMPDEST PUSH1 0x0 PUSH1 0x20 DUP3 ADD SWAP1 POP PUSH2 0x728 PUSH1 0x0 DUP4 ADD DUP5 PUSH2 0x699 JUMP JUMPDEST SWAP3 SWAP2 POP POP JUMP JUMPDEST PUSH1 0x0 PUSH1 0x20 DUP3 ADD SWAP1 POP DUP2 DUP2 SUB PUSH1 0x0 DUP4 ADD MSTORE PUSH2 0x747 DUP2 PUSH2 0x6D9 JUMP JUMPDEST SWAP1 POP SWAP2 SWAP1 POP JUMP JUMPDEST PUSH1 0x0 PUSH2 0x758 PUSH2 0x769 JUMP JUMPDEST SWAP1 POP PUSH2 0x764 DUP3 DUP3 PUSH2 0x8A1 JUMP JUMPDEST SWAP2 SWAP1 POP JUMP JUMPDEST PUSH1 0x0 PUSH1 0x40 MLOAD SWAP1 POP SWAP1 JUMP JUMPDEST PUSH1 0x0 PUSH8 0xFFFFFFFFFFFFFFFF DUP3 GT ISZERO PUSH2 0x78E JUMPI PUSH2 0x78D PUSH2 0x930 JUMP JUMPDEST JUMPDEST PUSH2 0x797 DUP3 PUSH2 0x973 JUMP JUMPDEST SWAP1 POP PUSH1 0x20 DUP2 ADD SWAP1 POP SWAP2 SWAP1 POP JUMP JUMPDEST PUSH1 0x0 DUP2 MLOAD SWAP1 POP SWAP2 SWAP1 POP JUMP JUMPDEST PUSH1 0x0 DUP3 DUP3 MSTORE PUSH1 0x20 DUP3 ADD SWAP1 POP SWAP3 SWAP2 POP POP JUMP JUMPDEST PUSH1 0x0 DUP2 SWAP1 POP SWAP3 SWAP2 POP POP JUMP JUMPDEST PUSH1 0x0 PUSH2 0x7D6 DUP3 PUSH2 0x835 JUMP JUMPDEST SWAP2 POP PUSH2 0x7E1 DUP4 PUSH2 0x835 JUMP JUMPDEST SWAP3 POP DUP3 PUSH2 0x7F1 JUMPI PUSH2 0x7F0 PUSH2 0x901 JUMP JUMPDEST JUMPDEST PUSH1 0x1 PUSH1 0x0 SUB DUP4 EQ PUSH32 0x8000000000000000000000000000000000000000000000000000000000000000 DUP4 EQ AND ISZERO PUSH2 0x82A JUMPI PUSH2 0x829 PUSH2 0x8D2 JUMP JUMPDEST JUMPDEST DUP3 DUP3 SDIV SWAP1 POP SWAP3 SWAP2 POP POP JUMP JUMPDEST PUSH1 0x0 DUP2 SWAP1 POP SWAP2 SWAP1 POP JUMP JUMPDEST PUSH1 0x0 DUP2 SWAP1 POP SWAP2 SWAP1 POP JUMP JUMPDEST PUSH1 0x0 PUSH10 0xFFFFFFFFFFFFFFFFFFFF DUP3 AND SWAP1 POP SWAP2 SWAP1 POP JUMP JUMPDEST DUP3 DUP2 DUP4 CALLDATACOPY PUSH1 0x0 DUP4 DUP4 ADD MSTORE POP POP POP JUMP JUMPDEST PUSH1 0x0 JUMPDEST DUP4 DUP2 LT ISZERO PUSH2 0x88C JUMPI DUP1 DUP3 ADD MLOAD DUP2 DUP5 ADD MSTORE PUSH1 0x20 DUP2 ADD SWAP1 POP PUSH2 0x871 JUMP JUMPDEST DUP4 DUP2 GT ISZERO PUSH2 0x89B JUMPI PUSH1 0x0 DUP5 DUP5 ADD MSTORE JUMPDEST POP POP POP POP JUMP JUMPDEST PUSH2 0x8AA DUP3 PUSH2 0x973 JUMP JUMPDEST DUP2 ADD DUP2 DUP2 LT PUSH8 0xFFFFFFFFFFFFFFFF DUP3 GT OR ISZERO PUSH2 0x8C9 JUMPI PUSH2 0x8C8 PUSH2 0x930 JUMP JUMPDEST JUMPDEST DUP1 PUSH1 0x40 MSTORE POP POP POP JUMP JUMPDEST PUSH32 0x4E487B7100000000000000000000000000000000000000000000000000000000 PUSH1 0x0 MSTORE PUSH1 0x11 PUSH1 0x4 MSTORE PUSH1 0x24 PUSH1 0x0 REVERT JUMPDEST PUSH32 0x4E487B7100000000000000000000000000000000000000000000000000000000 PUSH1 0x0 MSTORE PUSH1 0x12 PUSH1 0x4 MSTORE PUSH1 0x24 PUSH1 0x0 REVERT JUMPDEST PUSH32 0x4E487B7100000000000000000000000000000000000000000000000000000000 PUSH1 0x0 MSTORE PUSH1 0x41 PUSH1 0x4 MSTORE PUSH1 0x24 PUSH1 0x0 REVERT JUMPDEST PUSH1 0x0 DUP1 REVERT JUMPDEST PUSH1 0x0 DUP1 REVERT JUMPDEST PUSH1 0x0 DUP1 REVERT JUMPDEST PUSH1 0x0 DUP1 REVERT JUMPDEST PUSH1 0x0 PUSH1 0x1F NOT PUSH1 0x1F DUP4 ADD AND SWAP1 POP SWAP2 SWAP1 POP JUMP JUMPDEST PUSH32 0x556E737570706F72746564206461746120666565640000000000000000000000 PUSH1 0x0 DUP3 ADD MSTORE POP JUMP JUMPDEST PUSH2 0x9B6 DUP2 PUSH2 0x835 JUMP JUMPDEST DUP2 EQ PUSH2 0x9C1 JUMPI PUSH1 0x0 DUP1 REVERT JUMPDEST POP JUMP JUMPDEST PUSH2 0x9CD DUP2 PUSH2 0x83F JUMP JUMPDEST DUP2 EQ PUSH2 0x9D8 JUMPI PUSH1 0x0 DUP1 REVERT JUMPDEST POP JUMP JUMPDEST PUSH2 0x9E4 DUP2 PUSH2 0x849 JUMP JUMPDEST DUP2 EQ PUSH2 0x9EF JUMPI PUSH1 0x0 DUP1 REVERT JUMPDEST POP JUMP INVALID LOG2 PUSH5 0x6970667358 0x22 SLT KECCAK256 PUSH12 0xDE7A64C7CB8B8A2279147697 0xC0 SWAP7 0xE3 0xA7 0xE8 MOD CREATE 0xBA SWAP1 TIMESTAMP DELEGATECALL JUMP OR 0xAE 0x2A 0xA5 CALLDATASIZE ADDRESS SELFBALANCE PUSH5 0x736F6C6343 STOP ADDMOD SMOD STOP CALLER "},"methodIdentifiers":{"getChainlinkDataFeedLatestAnswer(string)":"6b33e354"}}}}}