{
  "_format": "hh-sol-artifact-1",
  "contractName": "DataConsumerV3",
  "sourceName": "contracts/chainlinkcontract.sol",
  "abi": [
    {
      "inputs": [],
      "stateMutability": "nonpayable",
      "type": "constructor"
    },
    {
      "inputs": [
        {
          "internalType": "string",
          "name": "_input",
          "type": "string"
        }
      ],
      "name": "getChainlinkDataFeedLatestAnswer",
      "outputs": [
        {
          "internalType": "int256",
          "name": "",
          "type": "int256"
        }
      ],
      "stateMutability": "view",
      "type": "function"
    }
  ],
  "bytecode": "0x608060405234801561001057600080fd5b50731b44f3514812d835eb1bdb0acb33d3fa3351ee436000806101000a81548173ffffffffffffffffffffffffffffffffffffffff021916908373ffffffffffffffffffffffffffffffffffffffff16021790555073694aa1769357215de4fac081bf1f309adc325306600160006101000a81548173ffffffffffffffffffffffffffffffffffffffff021916908373ffffffffffffffffffffffffffffffffffffffff16021790555073c59e3633baac79493d908e63626716e204a45edf600260006101000a81548173ffffffffffffffffffffffffffffffffffffffff021916908373ffffffffffffffffffffffffffffffffffffffff160217905550735fb1616f78da7afc9ff79e0371741a747d2a7f22600360006101000a81548173ffffffffffffffffffffffffffffffffffffffff021916908373ffffffffffffffffffffffffffffffffffffffff160217905550610a28806101736000396000f3fe608060405234801561001057600080fd5b506004361061002b5760003560e01c80636b33e35414610030575b600080fd5b61004a600480360381019061004591906105d5565b610060565b6040516100579190610713565b60405180910390f35b60006100a1826040518060400160405280600781526020017f4254432f555344000000000000000000000000000000000000000000000000008152506104cd565b1561016b5760008060009054906101000a900473ffffffffffffffffffffffffffffffffffffffff1673ffffffffffffffffffffffffffffffffffffffff1663feaf968c6040518163ffffffff1660e01b815260040160a06040518083038186803b15801561010f57600080fd5b505afa158015610123573d6000803e3d6000fd5b505050506040513d601f19601f82011682018060405250810190610147919061061e565b50505091505060006305f5e1008261015f91906107cb565b905080925050506104c8565b6101aa826040518060400160405280600781526020017f4554482f555344000000000000000000000000000000000000000000000000008152506104cd565b15610275576000600160009054906101000a900473ffffffffffffffffffffffffffffffffffffffff1673ffffffffffffffffffffffffffffffffffffffff1663feaf968c6040518163ffffffff1660e01b815260040160a06040518083038186803b15801561021957600080fd5b505afa15801561022d573d6000803e3d6000fd5b505050506040513d601f19601f82011682018060405250810190610251919061061e565b50505091505060006305f5e1008261026991906107cb565b905080925050506104c8565b6102b4826040518060400160405280600881526020017f4c494e4b2f5553440000000000000000000000000000000000000000000000008152506104cd565b1561037f576000600260009054906101000a900473ffffffffffffffffffffffffffffffffffffffff1673ffffffffffffffffffffffffffffffffffffffff1663feaf968c6040518163ffffffff1660e01b815260040160a06040518083038186803b15801561032357600080fd5b505afa158015610337573d6000803e3d6000fd5b505050506040513d601f19601f8201168201806040525081019061035b919061061e565b50505091505060006305f5e1008261037391906107cb565b905080925050506104c8565b6103be826040518060400160405280600781526020017f4254432f455448000000000000000000000000000000000000000000000000008152506104cd565b1561048d576000600360009054906101000a900473ffffffffffffffffffffffffffffffffffffffff1673ffffffffffffffffffffffffffffffffffffffff1663feaf968c6040518163ffffffff1660e01b815260040160a06040518083038186803b15801561042d57600080fd5b505afa158015610441573d6000803e3d6000fd5b505050506040513d601f19601f82011682018060405250810190610465919061061e565b5050509150506000670de0b6b3a76400008261048191906107cb565b905080925050506104c8565b6040517f08c379a00000000000000000000000000000000000000000000000000000000081526004016104bf9061072e565b60405180910390fd5b919050565b6000816040516020016104e091906106fc565b604051602081830303815290604052805190602001208360405160200161050791906106fc565b6040516020818303038152906040528051906020012014905092915050565b600061053961053484610773565b61074e565b90508281526020810184848401111561055557610554610964565b5b61056084828561085f565b509392505050565b600081519050610577816109ad565b92915050565b600082601f8301126105925761059161095f565b5b81356105a2848260208601610526565b91505092915050565b6000815190506105ba816109c4565b92915050565b6000815190506105cf816109db565b92915050565b6000602082840312156105eb576105ea61096e565b5b600082013567ffffffffffffffff81111561060957610608610969565b5b6106158482850161057d565b91505092915050565b600080600080600060a0868803121561063a5761063961096e565b5b6000610648888289016105c0565b955050602061065988828901610568565b945050604061066a888289016105ab565b935050606061067b888289016105ab565b925050608061068c888289016105c0565b9150509295509295909350565b6106a281610835565b82525050565b60006106b3826107a4565b6106bd81856107c0565b93506106cd81856020860161086e565b80840191505092915050565b60006106e66015836107af565b91506106f182610984565b602082019050919050565b600061070882846106a8565b915081905092915050565b60006020820190506107286000830184610699565b92915050565b60006020820190508181036000830152610747816106d9565b9050919050565b6000610758610769565b905061076482826108a1565b919050565b6000604051905090565b600067ffffffffffffffff82111561078e5761078d610930565b5b61079782610973565b9050602081019050919050565b600081519050919050565b600082825260208201905092915050565b600081905092915050565b60006107d682610835565b91506107e183610835565b9250826107f1576107f0610901565b5b600160000383147f80000000000000000000000000000000000000000000000000000000000000008314161561082a576108296108d2565b5b828205905092915050565b6000819050919050565b6000819050919050565b600069ffffffffffffffffffff82169050919050565b82818337600083830152505050565b60005b8381101561088c578082015181840152602081019050610871565b8381111561089b576000848401525b50505050565b6108aa82610973565b810181811067ffffffffffffffff821117156108c9576108c8610930565b5b80604052505050565b7f4e487b7100000000000000000000000000000000000000000000000000000000600052601160045260246000fd5b7f4e487b7100000000000000000000000000000000000000000000000000000000600052601260045260246000fd5b7f4e487b7100000000000000000000000000000000000000000000000000000000600052604160045260246000fd5b600080fd5b600080fd5b600080fd5b600080fd5b6000601f19601f8301169050919050565b7f556e737570706f72746564206461746120666565640000000000000000000000600082015250565b6109b681610835565b81146109c157600080fd5b50565b6109cd8161083f565b81146109d857600080fd5b50565b6109e481610849565b81146109ef57600080fd5b5056fea26469706673582212206bde7a64c7cb8b8a2279147697c096e3a7e806f0ba9042f45617ae2aa536304764736f6c63430008070033",
  "linkReferences": {},
  "deployedLinkReferences": {}
}